:100000006F00F02C00000000440B0000420B0000C9
:1000100000000000000000000000000000000000E0
:1000200000000000000000000000000000000000D0
:10003000420B000000000000420B00000000000026
:10004000420B0000420B0000420B0000420B00007C
:10005000420B0000420B0000420B0000420B00006C
:10006000420B0000420B0000420B0000420B00005C
:10007000420B0000420B0000420B0000420B00004C
:10008000420B0000420B0000420B0000420B00003C
:10009000420B0000420B0000420B00000000000079
:1000A000130181FD9356750126CE9317950006D254
:1000B00022D093F6F60FA5839354F501ADC2130732
:1000C000F00F638EE6068E0737070004D98F9386FC
:1000D00016F8014313D67501139495001376F60FA5
:1000E0002580FD8135C61307F00F6307E6080E046F
:1000F00037070004598C130616F80145918E131624
:100100002300498E7D16B94233C7B40063EEC2089E
:1001100085620A06938202EF16961042028695C700
:100120003E852EC23EC0112D82471307B5FF9306B0
:10013000A0F89245B397E700898E014361BF93060B
:10014000F00F0D43C1FB094371B78146054359B711
:1001500015C822853EC636C41AC22EC0F92B130715
:10016000B5FF1306A0F8098E82451243A246B24796
:100170003314E400014559B71306F00F0D453DFC5B
:100180000945ADBF0146054595BF26873E841A85C2
:100190008947630BF5188D476302F5188547631C83
:1001A000F50C8147014529A21316540063FE871000
:1001B000FD1681433AC8135706013AC0824541648F
:1001C0007D14337786003E8536CC1ECA32C63AC2CD
:1001D0003EC4CD29AA852A841245E921A247824539
:1001E000AA843E853123D2434205324693D503018A
:1001F000C98D4247E246A28763FC9500B2959307FA
:10020000F4FF63E7C50063F595009307E4FFB2953B
:100210003EC8B387954082453E853E8436CA3AC67D
:1002200032CC4D21AA852AC41245AD298245AA8423
:1002300022857D29A243131305013247C247D246C6
:100240009E856371930262469385F3FF3305C30075
:10025000333465002A8319E4637695009385E3FFC0
:100260003303C50013940701330393404D8C33339C
:100270006000336464001385F607635DA004937720
:10028000740099C79377F40011466383C700110483
:10029000B7070008E18F99C7B70700F8FD177D8CF5
:1002A000138506089307E00F63C0A708935734002F
:1002B00092500254A6075E05A5835D8D7E07F24429
:1002C000598D1301810282809393F7018583DDB5F7
:1002D0002E877DBD054619C5098EED45814701452F
:1002E000E3C8C5FC9386E6093356C4003314D40032
:1002F00033348000B367860093F6770099C693F68F
:10030000F70011466383C6009107B7060004FD8E0F
:100310008D83E38906E88147054559BFB70740004B
:100320001305F00F014769B781471305F00F49B76F
:1003300011119352750122CA26C81317950006CCD5
:1003400093F2F20FAE8425831354F501638B0212EE
:100350009307F00F6385F2140E07B70700045D8F53
:10036000938212F8014693D674019397940093F602
:10037000F60FA583FD80638E06129305F00F638E42
:10038000B614B70500048E07CD8F938616F8814505
:10039000969636C09382160093162600CD8E294578
:1003A00033439400634FD51609456342D514FD16B7
:1003B0000546637CD614C164935607019383F4FF0A
:1003C00036C23377770093D60701B3F7770036C488
:1003D0003A85BE85C12C2A84A2453A85E1242A8724
:1003E000BE851245C124AA87A2451245652C9356A5
:1003F00004013E9736976373F7002695B37777002D
:10040000B3767400C207B69793966700B336D000F0
:10041000E983DD8E93570701AA979A07D58F37078F
:1004200000087D8F6309071013D71700858BD98FBC
:100430001385F2076353A01013F7770019C713F75A
:10044000F70091466303D7009107370700087D8FB7
:1004500019C7370700F87D17F98F138502081307AE
:10046000E00F6345A71213D73700E2405244260736
:100470005E052583598D7E03C24433656500710195
:1004800082800DC73A853AC04D2C02479307B5FFCD
:100490009302A0F83317F700B382A240E1B59302AC
:1004A000F00F0D46E31107EC094675BD8142054684
:1004B0005DBD9DCB3E853AC616C432C23EC0B52C4A
:1004C00082479306B5FF1246B397D7009306A0F86C
:1004D000A2423247898E814565BD9306F00F8D4556
:1004E000E39807EA89456DB58146854555B50545CB
:1004F000B316D50013F5065305ED13F6062449E2AD
:1005000093F68608E38906EA268309476380E508AF
:100510000D476387E5060547E39CE5F00147014584
:10052000A9B73D45638EA6042D452283E38EA6FC24
:10053000BA87B285D9BF8242E5BD854619C5898E85
:100540006D4601470145E342D6F29382E209B3D6F4
:10055000D700B3975700B337F00033E7F60093772F
:10056000770099C79377F70091466383D700110707
:10057000B7070004F98F0D83DDD301470545F5B5B5
:10058000370740001305F00F0143C5B501471305B8
:10059000F00FE1BD93577501370680009306F6FF13
:1005A00093F7F70F9305E007E98E1357F50101451F
:1005B00063DAF50205EB1307E0097D556344F702A2
:1005C0001307500933E5C6006357F7009387A7F672
:1005D0003315F500828013076009B307F7403355E0
:1005E000F50082808280511106C422C226C04DC50A
:1005F0009357F54133C4A7001D8C9354F501228510
:100600002D2AAA871305E0091D8D1307600963438E
:10061000A70221476385E708E1173314F400260495
:1006200025805E05A240418D1244FE04458D824422
:1006300031018280130790096358A70495461387F8
:10064000B7013317E4009D8EB356D4003337E00072
:1006500033E4E600370700FC7D1793767400618F62
:1006600091C63D8891466303D4001107B706000484
:10067000F98E81CAB70600FCFD161305F009758FC7
:100680001D8D1354370061BF95461387B7FFE38371
:10069000D7FC3314E4007DBF8144014449B71305FE
:1006A0006009B5BF2A86014593F6150091C23295BF
:1006B00085810606F5F9828000000000634E050280
:1006C00063C305042E86AA857D5515C285466378C9
:1006D000B6006356C00006068606E36CB6FE01450A
:1006E00063E4C500918D558D85820582F5FA82807F
:1006F0008682C93F2E8582823305A0406347B000C1
:10070000B305B040C1B7B305B0408682653F33053D
:10071000A0408282868263C70500634905005D3779
:100720002E858282B305B040E35B05FE3305A04011
:10073000513F3305B04082820000C1676375F50206
:100740009337051093C717008E07056793060002BD
:100750009D8E3355F5009307C7F2AA9703C507008E
:100760003385A640828037070001C147E36FE5FC6F
:10077000E147E1BF311126C406C822C6AE84AA876C
:10078000B28599C6014363D79600B684054319A084
:100790000143A686338496406353040001442286B5
:1007A0003A853EC21AC0692B024392472A87B30694
:1007B00085000146B385C4406342B00463D304009E
:1007C0008144B38596003385E54063040302637278
:1007D000B7029307A002A38FF5FE9386F5FF637A15
:1007E000D700238FF5FE9386E5FF6374D700A38EB1
:1007F000F5FEC2403244A24451018280B385C70055
:1008000003C50500B385C60005062380A5005DB7B6
:10081000011106CE22CC26CA02C02A8363570500E6
:1008200089E685473303A0403EC0058A13041006BD
:1008300019C213041004BA8459141A853AC81AC28A
:100840002EC61AC47535A5472243B2454247937652
:10085000F50F63E1A7069386060393F6F60F9387D9
:1008600014002380D4001A853AC83EC62EC4993D90
:100870009246A245B24742472A8363FBB6028246AC
:1008800099C69306D0022380D7009387240033852E
:10089000E7409356F501AA96238007008586014616
:1008A000FD17634BD600F2406244D244056182805A
:1008B000BE8461B7A29655B7B305C70083C20700CF
:1008C00003C3050005062380550023806700C9BFC8
:1008D000B727014093870740C8DB9847B706400019
:1008E000558F98C79843098B75DFFC4703D72500C0
:1008F000C207C1832392F5006375F7002391F500C9
:10090000828003D7050063F4E7002390F50082801E
:10091000411122C426C22A848354050003552500B0
:1009200006C6058DC931AA8503A58181EFF04FF771
:100930002AC003554400058D7D31AA850245CD3A74
:10094000913942054181930745F9C207C1831307D5
:1009500080026364F700130500082313A400B2406B
:100960002244924441018280B7160240904E914742
:10097000B397A700D18F93E717009CCE1377F50F9D
:1009800085670A0793870705BA97984321811375EE
:10099000F50F104393162500BD47B397D70093C7B3
:1009A000F7FFF18F1CC3104393F7F500B397D700FF
:1009B000D18F1CC393F6F5FEA1476399F6008547D6
:1009C0009181B397A70091E1C2071CCB8280B70742
:1009D00000E09387470F9C438280011122CC06CE12
:1009E00026CA2AC002C82E84F9E1B70700E093871F
:1009F000470F9C4389C793F7070891E3C93FF2402B
:100A000022856244D24405618280B30694401D462B
:100A100036876353D6001D4737760200130616103B
:100A20008325030013F505083DED81C91AC63AC4B4
:100A300036C2713F32432247924693A636000146A2
:100A400099E21306D7FF8247938534000808BE95C4
:100A50001AC43AC2FD2C42468247B70600E0224340
:100A600012479386860F90C28D4533869700814644
:100A700083420600850693870601338527002300FD
:100A800055006305D7000506E394B6FE93064700BC
:100A900093E606F82308D100C246BA942320D30077
:100AA000E3C584F6A9BF7D1625FE268489BF3703DA
:100AB00000E081441303430FE5B7511122C206C47D
:100AC0002E84213FA2402285124431018280970169
:100AD0000020938121D313810100130500087310B6
:100AE00005308D4617F5FFFF1305C551558D731061
:100AF00055301385C1819385C18101466356B50088
:100B000010C11105E34EB5FE17050000130585550C
:100B100097F5FF1F9385054F1386C1816388C50034
:100B2000144194C111059105E39AC5FEB7F700E0A1
:100B3000154798C38567938707DD73901734730053
:100B4000203001A0371702401C47B7068000D58F20
:100B50001CC7AA8703C7070001E73385A740828027
:100B60008507CDBF130141FAA2CAA6C886CC2AC008
:100B70002EC23284B68402CA83470400930614004E
:100B8000A30FF10081EBE64056445245C6441301E1
:100B9000C105828036C6130750026380E702124601
:100BA000824785451305F1018297B24626C43684F3
:100BB000D247A244AA973ECAC1B7034714001306FE
:100BC000000393060003A30FE10032C6930724003D
:100BD0006312D7083E8481468147A54511A8139723
:100BE00027000504BA970347F4FF8607B2978546A6
:100BF000130607FD1375F60FE3F3A5FE99C2A30FC5
:100C0000E1003EC8E14663D3F60036C81306C006CD
:100C100081466318C7000347040085460504A30FF7
:100C2000E1000346F101130740066305E60663672A
:100C3000C702930780056300F60A93073006630D29
:100C4000F60A31D21246824785451305F101829793
:100C500026C4B9BF9306000236C6ADBF13075007BE
:100C6000630AE602130780076307E60613073007E7
:100C7000E31AE6FC3ECC9387440084403EC42685BC
:100C8000C93DE247AA856356F008C2463246381885
:100C900026851DA0938744003EC495C61306B6F86A
:100CA00018109336160088400146A9459536C2466D
:100CB00032463818AA850810753C1246AA852818AD
:100CC00082478297F5B59307500718108546E30CC5
:100CD000F6FC8146C9BF8840130686FA9387440014
:100CE0001810854613361600C1453EC41536C24657
:100CF0003246AA853818C1B7938744003EC49C4049
:100D0000C2463246A30FF100381885451305F1019C
:100D100065B7124626856DB71301C1FD32CA2A8612
:100D200005652EC836CC814514081305A5AB06C64B
:100D30003ACE3ED036C03D35B240130141028280EA
:100D40002A96AA876393C70082802380B70085070D
:100D5000D5BF81476313F60082803387F500834651
:100D600007003307F50085072300D700E5B7B7274D
:100D70000240054798C3B71702403707080123A26E
:100D800007001307170898C337079F0098C737173E
:100D900002401C4393966700E3DD06FE5C43B716F2
:100DA0000240F19B93E727005CC32147DC42B18BF3
:100DB000E39EE7FEB70700E09387870F23A00700B5
:100DC000B70700E09387470F1307000898C3828096
:100DD000511106C422C226C0593FE14513052070B7
:100DE0006136814513053020413681451305303089
:100DF000A53E814513053040853EB7170240984F08
:100E0000C1769386F67F1367072098CFD843758FF6
:100E1000D8C3D843B7060E008506D8C3D847136792
:100E20000720D8C7D8471377F7DFD8C7B7270140BF
:100E30009387074023A6070223A807023777DB36EC
:100E400023AA0702130767DBD8C798CB9847558FAB
:100E500098C798471367870098C79847218B75FFF5
:100E6000B71701409C47938501810D459534B7071D
:100E70000020938587001145A13C3704002093058D
:100E800004001D45B134138501815934B707002092
:100E900013858700B53C130504009D3C1387018131
:100EA0008355670005651305C502BD35B7070020EA
:100EB0009387870083D56700056513058503A93DE2
:100EC0001304040083556400056513054504A93522
:100ED000B7F700E09847B7A72400938707F03E973D
:100EE000B7F600E09C46998FE3CE07FE95BF000061
:100EF00028030000A2010000D0020000A2010000AF
:100F00001C030000A2010000D00200002803000022
:100F1000280300001C030000D00200008A0100002A
:100F20008A0100008A0100001C0300000001020287
:100F30000303030304040404040404040505050571
:100F4000050505050505050505050505060606064D
:100F50000606060606060606060606060606060631
:100F6000060606060606060606060606070707071D
:100F70000707070707070707070707070707070701
:100F800007070707070707070707070707070707F1
:100F900007070707070707070707070707070707E1
:100FA00007070707070707070707070708080808CD
:100FB00008080808080808080808080808080808B1
:100FC00008080808080808080808080808080808A1
:100FD0000808080808080808080808080808080891
:100FE0000808080808080808080808080808080881
:100FF0000808080808080808080808080808080871
:101000000808080808080808080808080808080860
:101010000808080808080808080808080808080850
:10102000080808080808080808080808726F743AD1
:101030002025640A00000000686F723A2025640AC7
:10104000000000007665723A2025640A0A0000005C
:1010500000080140000000000010014000140140A1
:10106000C800200300000000C800200300000000AA
:0C1070003200B6030000000000007F43C7
:00000001FF
