:100000006F10A03600000000E0130000DE130000B7
:1000100000000000000000000000000000000000E0
:1000200000000000000000000000000000000000D0
:10003000DE13000000000000DE13000000000000DE
:10004000DE130000DE130000DE130000DE130000EC
:10005000DE130000DE130000DE130000DE130000DC
:10006000DE130000DE130000DE130000DE130000CC
:10007000DE130000DE130000DE130000DE130000BC
:10008000DE130000DE130000DE130000DE130000AC
:10009000DE130000DE130000DE130000000000008D
:1000A000130141FC26D8AE841397C50093D7F40101
:1000B000D18122DA2A832A8406DC13F5F57F3EC03B
:1000C000318341C59307F07F630AF50E0E079357FE
:1000D000D301D98F37078000D98F131433009305CC
:1000E00015C081441397C6009353C70013D7460128
:1000F000FD821377F77F36C27DC39306F07F630CD2
:10010000D714139533009356D601C98E3705800056
:10011000B3E3A60093163600130617C00145024745
:100120001243334767003AC63387C5403AC4139732
:100130002400498F7D1739466360E61605660A0775
:1001400013060679329718430287B3676700BDCF5D
:1001500036C832C61DCF3A851AC43AC2EF00B0661F
:10016000124722433246C246AA82930355FFF547FF
:10017000938582FFB38777403317B700B357F300F7
:10018000D98F3317B3009305D0C0B38555403A8457
:1001900089BF1A853AC41AC2EF00F0629303550171
:1001A000F147124322473246C24693020502E3D08A
:1001B00077FC930785FFB317F300F1B7B3676700C8
:1001C00091CBBA879305F07F8D4429BF01448145C7
:1001D000854409BF01449305F07F894421B7B3E604
:1001E000C300D1C2638303041E8532CA2EC83EC633
:1001F0001EC4EF00505DA243B247C2455246AA86D4
:10020000930255FF7547138586FF33075740B39315
:10021000A3003357E60033677700B313A600130635
:10022000D0C0158E9E86BA83D5BD32851ECA2EC813
:100230003EC632C4EF003059930255017147224641
:10024000B247C245D24393060502E35D57FA6115F2
:100250003317A600E9B7B3E6C30091CAB2860D45CD
:100260001306F07F6DBD8143014605454DBD8143B9
:100270001306F07F094565B50247BE83A2863AC6DC
:1002800089476387F4428D47638DF4408547639BBC
:10029000F42E81438146F9AE63E6F300639177362D
:1002A000636FD4349395F701135614001317F401B8
:1002B000858333E4C500139683003AD013978600F4
:1002C0003AC01357060193D586013AC233E3C500FD
:1002D00092451317030141833E851ACE3ACC3ECA9C
:1002E000EF001047AA852AC86245EF007044D24744
:1002F0009245AA843E85EF007048C24642051356D7
:100300000401498E72430257B687637C96001A96A1
:100310009387F6FF63676600637596009387E6FF31
:100320001A9692453ED0B30796403E851AD23ACEF1
:100330003EC8EF00F041AA852ACA624542044180C6
:10034000EF00103F9245AA844245EF0030435246E9
:100350004205498C724782571253B285637C9400E0
:100360001A949305F6FF6367640063759400930520
:10037000E6FF1A94C207B3E2B70082470246C163A0
:100380009386F3FFC1833EC8B3F7D200F18E058C8C
:100390003E8536CAB685EF00B039AA84C2453E858F
:1003A000EF001039AA87D24513D50201EF0050386B
:1003B0002ACEC24513D50201EF009037724693D67C
:1003C0000401B297B69763F3C7001E9593D6070151
:1003D0003695C166FD16F58FC207F58CBE9463672E
:1003E000A40096836313A4046371970482479383E4
:1003F000F2FFBA97B3B6E7003386660032943E87C1
:1004000063658300631383028DE26366A400631E49
:10041000850063FC970002479383E2FFBA973E870B
:100420008247B337F7009A973E94B3049740098CFC
:1004300033379700198C1AD4FD56630583149245FF
:1004400022851ED2EF00D030AA852AD06245EF0067
:10045000302E92452ACE2285EF0050328256F24746
:10046000420513D40401498C925322533687637C8E
:10047000F4001A941387F6FF636764006375F40051
:100480001387E6FF1A949245B307F4403E851AD6C7
:100490003AD41ED23ECEEF00B02BAA852AD06245B8
:1004A000EF00102992452A847245EF00302D025644
:1004B000939704014205C183C98F92532257325347
:1004C000B28563FC87009A979305F6FF63E76700A0
:1004D00063F587009305E6FF9A9742074D8F9312C5
:1004E000070193D20201D245818F1685EF00502477
:1004F000AA84C2451685EF00B023AA82D2451355BF
:100500000701EF00F0222A84C24513550701EF00CE
:10051000302213D60401B3868200B302D60063F4FE
:100520008200C166369593D602013695C166FD16E6
:10053000B3F2D200C202E58EB69263E7A700BA8694
:100540006390A704638002049A979306F7FF3E86A0
:1005500063E3670263E7A7006394A7020246637E32
:1005600056009306E7FF0247024606073336C700E8
:100570001A963E963AC06315A60082476384F2003D
:1005800093E61600A2479387F73F6353F00813F7EB
:10059000760001CF13F7F60011466308C7001387F2
:1005A00046003336D700B293BA863707000133F7D7
:1005B000E30009CBB70700FFFD17B3F3F300A24731
:1005C000938707401307E07F6344F70E13D7360085
:1005D0009396D301D98E93D333003247B203E250BE
:1005E0005254D20793D3C300B3E777007E0733E6B4
:1005F000E700C2543685B2851301C10382802247C9
:100600007D173AC4014745B99247AA843EC68DB9C1
:10061000054689CB1D8E13078003E34CC7C67D4773
:10062000634CC704A2471387E741B3D7C600B3960C
:10063000E600B336D0003397E300D98ED58FB3D31D
:10064000C30013F7770001CF13F7F7009146630853
:10065000D70013874700B336F700B693BA8737073A
:10066000800033F7E30031EB9396D3018D83DD8E69
:1006700093D33300814795B70557B307F7409305E8
:100680000002B3D7F30001476307B6002247130700
:10069000E7433397E300558F3337E000D98F814329
:1006A0004DB7B703080081469307F07F02C635B700
:1006B000814381469307F07F0DB78143814685478B
:1006C00029BF511106C422C226C029CD9357F54136
:1006D00033C4A7001D8C9354F5012285EF00B00EA2
:1006E0009306E041A947898E63C8A702AD47898F69
:1006F00055053317A400B357F4002685B207A2406E
:100700001244B183D2067E05DD8EB3E7A600824493
:100710003A85BE85310182805515B317A400268520
:100720000147E9BF81468147E5BF11119352750129
:1007300022CA26C81317950006CC93F2F20FAE8496
:1007400025831354F501638B02129307F00F638521
:10075000F2140E07B70700045D8F938212F801466A
:1007600093D674019397940093F6F60FA583FD80BA
:10077000638E06129305F00F638EB614B70500045E
:100780008E07CD8F938616F88145969636C0938254
:10079000160093162600CD8E294533439400634FEF
:1007A000D51609456342D514FD160546637CD6145B
:1007B000C164935607019383F4FF36C23377770001
:1007C00093D60701B3F7770036C43A85BE858D27E7
:1007D0002A84A2453A85A92F2A87BE851245892FEA
:1007E000AA87A2451245A927935604013E9736973A
:1007F0006373F7002695B3777700B3767400C2076A
:10080000B69793966700B336D000E983DD8E935791
:100810000701AA979A07D58F370700087D8F6309CC
:10082000071013D71700858BD98F1385F2076353F1
:10083000A01013F7770019C713F7F7009146630369
:10084000D7009107370700087D8F19C7370700F8D1
:100850007D17F98F138502081307E00F6345A71270
:1008600013D73700E240524426075E052583598D91
:100870007E03C24433656500710182800DC73A85ED
:100880003AC0912702479307B5FF9302A0F83317A8
:10089000F700B382A240E1B59302F00F0D46E311D9
:1008A00007EC094675BD814205465DBD9DCB3E8581
:1008B0003AC616C432C23EC0392782479306B5FFF6
:1008C0001246B397D7009306A0F8A2423247898E0A
:1008D000814565BD9306F00F8D45E39807EA89458C
:1008E0006DB58146854555B50545B316D50013F55B
:1008F000065305ED13F6062449E293F68608E389CC
:1009000006EA268309476380E5080D476387E50605
:100910000547E39CE5F001470145A9B73D45638ED6
:10092000A6042D452283E38EA6FCBA87B285D9BFE3
:100930008242E5BD854619C5898E6D460147014550
:10094000E342D6F29382E209B3D6D700B3975700B9
:10095000B337F00033E7F6009377770099C79377C2
:10096000F70091466383D7001107B7070004F98F9A
:100970000D83DDD301470545F5B537074000130565
:10098000F00F0143C5B501471305F00FE1BDB707EF
:1009900080004111FD1733F6A70022C41357F5015B
:1009A0001354750113D57501ED8F06C626C2137554
:1009B000F50F1303F00F1374F40F0E06FD818E076D
:1009C00063176506930614F091CBAE826313B71ECE
:1009D0006383061451E41304F00F11A293C21500AF
:1009E000631F571C638906127DD41304F00FB706EA
:1009F0000004FD8E6389062C05049306F00F8144E4
:100A00006308D40093D43700B707801FFD17FD8C0F
:100A10005E04B707807FA604A5807D8C458C1315E6
:100A2000F701B240418D224492444101828093C239
:100A30001500B306A440631F57106359D00805E59D
:100A4000638F07269385F6FF89E9B297B7060004FE
:100A5000FD8E0944BDE2054415A0639C6600B28783
:100A60001304F00F21A8630E6424B7050004CD8F92
:100A7000B685ED4663DEB6009307160093F6770061
:100A8000BDD693F6F7001146E383C6F6910785B706
:100A9000930600028D8E33D5B700B397D700B337D6
:100AA000F000C98FB297B7060004FD8EE1DA0504A5
:100AB0009306F00F8144E30DD4F4B706007E13F6DD
:100AC0001700FD168583F58FD18F4DBFA9C6B305DD
:100AD000854009C4B7060004558E11A82E8459DE3E
:100AE0009305F4FFBDD19306F00FE309D4F8ED466A
:100AF00063D5B60085072A8451B7930600028D8E10
:100B0000B316D6003353B600B336D000B366D30065
:100B1000B6972A8449BF9306140093F5E60F95E132
:100B200011EC29DE638F0718B297B7060004FD8E1B
:100B3000B1D6B70600FCFD16F58F31BF15D285D3AF
:100B400005A29305F00F638BB6183E9693571600D7
:100B500036842DB7635BD00631E563820716938533
:100B6000F6FF89E5B307F640054425A0E38966EE64
:100B70006D458546634DB500930600028D8E33D5D5
:100B8000B700B397D700B337F000B366F500B307EB
:100B9000D640B7040004B3F69700E38106EEFD14D7
:100BA000FD8CF1A8630F6410B7050004CD8FB685E6
:100BB000C1B7B5CA05C81304F00F2E87C1B5A5C6C5
:100BC00015C41304F00F16871DB5B1CEB3058540CB
:100BD00031E416872E84E30306EA9305F4FF89E9DE
:100BE000918F59B72E871304F00FF5B71687E5BF1D
:100BF0009306F00FE304D4E86D438546634DB300DC
:100C0000930600028D8EB316D6003353B600B3366A
:100C1000D000B366D300958F2A84A5BF37070004A0
:100C2000598E1687D1BF9306140093F6E60F9DEEFA
:100C30001DE001E6C5CB168791B5C1C7B304F640E8
:100C4000B7060004E58E99C2918FF5B7A687E397A2
:100C500004E2014775BBE31406EE1687E39207E052
:100C600001471304F00FB70440005DB3B304F6402E
:100C7000B7060004E58E9DCAB384C7401687268553
:100C80003AC091266D150247B394A40063438502D0
:100C9000018D050593060002898EB3D7A400B39495
:100CA000D400B3349000C58F0144C9BBE9F80144B6
:100CB0004DB7B70700FCFD17098CE58FC1B3B287AC
:100CC00041BDB28765BB93D437009307F00FE311A2
:100CD000F4D4E38F04D2B7044000A5BF1304F00F8F
:100CE00081443DB38144B5B7370680001357750181
:100CF0009307F6FF1377F70F9305E007E98F9356F5
:100D0000F50163D0E5049305D00963D8E500370504
:100D100000801345F5FF3695828033E5C7009307C1
:100D2000500963DAE7001307A7F63315E50099CAFF
:100D30003305A040828093076009998F3355F500F1
:100D4000FDB701458280511106C422C226C04DC59F
:100D50009357F54133C4A7001D8C9354F5012285A8
:100D60009D24AA871305E0091D8D130760096343BD
:100D7000A70221476385E708E1173314F40026042E
:100D800025805E05A240418D1244FE04458D8244BB
:100D900031018280130790096358A7049546138791
:100DA000B7013317E4009D8EB356D4003337E0000B
:100DB00033E4E600370700FC7D1793767400618FFB
:100DC00091C63D8891466303D4001107B70600041D
:100DD000F98E81CAB70600FCFD161305F009758F60
:100DE0001D8D1354370061BF95461387B7FFE3830A
:100DF000D7FC3314E4007DBF8144014449B7130597
:100E00006009B5BF1397C50013D34501258313733C
:100E1000F37F9357D501D98F130713001377E77F1B
:100E2000FD81131635004DC7930603C81307E00F65
:100E3000634BD70E6340D008255763C9E60EB7024F
:100E400080007947B3E25700158FFD4763CEE70274
:100E5000130323C83357E600331666003336C00049
:100E60003393620033666600518F93777700ADEF5E
:100E7000935737008146A60713957601A583C98F3E
:100E80001395F5015D8D8280F957958F130500024A
:100E9000B3D7F20081466306A700930623CAB39630
:100EA000D200D18EB336D000D58F13F7770021E76B
:100EB0008D83C9B7131765008E073337E0005D8F48
:100EC0007582518F9377770095EF9357370065B709
:100ED000630E0304D18F9306F00FD1DF8145930693
:100EE000F00FB707400041BF9377F7009146E381C9
:100EF000D7F8814639A813F7F7009146E30AD7FAE5
:100F000091077DB71373F700914293573700E304BD
:100F100053F693074700370700047D8F8D8321DF49
:100F20008506814789BF9306F00FE5BF8146D5BF8F
:100F30002A86014593F6150091C2329585810606F1
:100F4000F5F9828000000000634E050263C30504CA
:100F50002E86AA857D5515C285466378B6006356F0
:100F6000C00006068606E36CB6FE014563E4C500D4
:100F7000918D558D85820582F5FA82808682C93FE2
:100F80002E8582823305A0406347B000B305B04090
:100F9000C1B7B305B0408682653F3305A040828269
:100FA000868263C70500634905005D372E8582820E
:100FB000B305B040E35B05FE3305A040513F330568
:100FC000B04082820000C1676375F5029337051057
:100FD00093C717008E070567930600029D8E335551
:100FE000F5009307C77CAA9703C507003385A64081
:100FF000828037070001C147E36FE5FCE147E1BFAD
:10100000311126C406C822C6AE84AA87B28599C605
:10101000014363D79600B684054319A00143A68611
:101020003384964063530400014422863A853EC2CD
:101030001AC06D23024392472A87B30685000146F2
:10104000B385C4406342B00463D304008144B385D4
:1010500096003385E540630403026372B702930789
:10106000A002A38FF5FE9386F5FF637AD700238F46
:10107000F5FE9386E5FF6374D700A38EF5FEC240AC
:101080003244A24451018280B385C70003C50500E4
:10109000B385C60005062380A5005DB7011106CE05
:1010A00022CC26CA02C02A836357050089E68547F9
:1010B0003303A0403EC0058A1304100619C213046E
:1010C0001004BA8459141A853AC81AC22EC61AC412
:1010D0007535A5472243B24542479376F50F63E144
:1010E000A7069386060393F6F60F938714002380D2
:1010F000D4001A853AC83EC62EC4993D9246A245F0
:10110000B24742472A8363FBB602824699C69306DA
:10111000D0022380D700938724003385E74093567D
:10112000F501AA962380070085860146FD17634BCB
:10113000D600F2406244D24405618280BE8461B729
:10114000A29655B7B305C70083C2070003C30500C5
:1011500005062380550023806700C9BFB7270140DB
:1011600093870740C8DB9847B7064000558F98C75C
:101170009843098B75DFFC4703D72500C207C1835D
:101180002392F5006375F7002391F500828003D761
:10119000050063F4E7002390F5008280411122C42A
:1011A00026C22A84835405000355250006C6058DF2
:1011B000EFF02FD12A86AE8603A5818183A5C18158
:1011C000EFE01FEE81312AC003554400058DA53E96
:1011D000AA850245EFF06FD583A50182EFF02FFBC2
:1011E0002136620561859307F50093F7F70F79477C
:1011F0006363F70001452303A400B24022449244F4
:1012000041018280B7160240904E9147B397A700E4
:10121000D18F93E717009CCE1377F50F89670A07E4
:101220009387078FBA97984321811375F50F104361
:1012300093162500BD47B397D70093C7F7FFF18FEB
:101240001CC3104393F7F500B397D700D18F1CC38D
:1012500093F6F5FEA1476399F60085479181B39710
:10126000A70091E1C2071CCB8280B70700E09387FB
:10127000470F9C438280011122CC06CE26CA2AC089
:1012800002C82E84F9E1B70700E09387470F9C431B
:1012900089C793F7070891E3C93FF240228562446A
:1012A000D24405618280B30694401D46368763535D
:1012B000D6001D473776020013061610832503005B
:1012C00013F505083DED81C91AC63AC436C2713F0F
:1012D00032432247924693A63600014699E213060E
:1012E000D7FF8247938534000808BE951AC43AC2D6
:1012F000FD2C42468247B70600E022431247938600
:10130000860F90C28D453386970081468342060042
:101310008506938706013385270023005500630562
:10132000D7000506E394B6FE9306470093E606F859
:101330002308D100C246BA942320D300E3C584F623
:10134000A9BF7D1625FE268489BF370300E08144AE
:101350001303430FE5B7511122C206C42E84213F67
:10136000A240228512443101828097F1FF1F9381B0
:1013700061491381010013050008731005308D4683
:1013800017F5FFFF130505C8558D731055301385EC
:1013900041829385418201466356B50010C1110513
:1013A000E34EB5FE170500001305C55597F5FF1F61
:1013B000938545C5138641826388C500144194C155
:1013C00011059105E39AC5FEB7F700E0154798C3EC
:1013D00085679387C766739017347300203001A028
:1013E000371702401C47B7068000D58F1CC7AA8755
:1013F00003C7070001E73385A74082808507CDBF7B
:10140000130141FAA2CAA6C886CC2AC02EC23284D1
:10141000B68402CA8347040093061400A30FF100A8
:1014200081EBE64056445245C6441301C105828013
:1014300036C6130750026380E7021246824785458D
:101440001305F1018297B24626C43684D247A244DE
:10145000AA973ECAC1B703471400130600039306B8
:101460000003A30FE10032C6930724006312D708DC
:101470003E8481468147A54511A81397270005049E
:10148000BA970347F4FF8607B2978546130607FD10
:101490001375F60FE3F3A5FE99C2A30FE1003EC852
:1014A000E14663D3F60036C81306C00681466318CA
:1014B000C7000347040085460504A30FE100034667
:1014C000F101130740066305E6066367C702930749
:1014D00080056300F60A93073006630DF60A31D2E1
:1014E0001246824785451305F101829726C4B9BF8C
:1014F0009306000236C6ADBF13075007630AE60223
:10150000130780076307E60613073007E31AE6FCB4
:101510003ECC9387440084403EC42685C93DE247C3
:10152000AA856356F008C2463246381826851DA0A3
:10153000938744003EC495C61306B6F81810933638
:10154000160088400146A945913EC24632463818E9
:10155000AA85081075341246AA85281882478297F2
:10156000F5B59307500718108546E30CF6FC814645
:10157000C9BF8840130686FA938744001810854631
:1015800013361600C1453EC4113EC2463246AA85F6
:101590003818C1B7938744003EC49C40C2463246C7
:1015A000A30FF100381885451305F10165B7124600
:1015B00026856DB71301C1FD32CA2A8605652EC87E
:1015C00036CC814514081305653506C63ACE3ED0A3
:1015D00036C03D35B2401301410282802A96AA8767
:1015E0006393C70082802380B7008507D5BF8147FA
:1015F0006313F60082803387F500834607003307C4
:10160000F50085072300D700E5B7B7270240054757
:1016100098C3B71702403707080123A20700130732
:10162000170898C337079F0098C7371702401C4315
:1016300093966700E3DD06FE5C43B7160240F19B1C
:1016400093E727005CC32147DC42B18BE39EE7FEB2
:10165000B70700E09387870F23A00700B70700E0D4
:101660009387470F1307000898C38280511106C45F
:1016700022C226C0593FE1451305305061368145ED
:10168000130530604136814513050010A53E8145A4
:1016900013050020853EB7170240984FC176938608
:1016A000F67F1367072098CFD843758FD8C3D843E8
:1016B000B7060E008506D8C3D84713670720D8C7DA
:1016C000D8471377F7DFD8C7B7270140938707407C
:1016D00023A6070223A807023777DB3623AA0702CF
:1016E000130767DBD8C798CB9847558F98C798479B
:1016F0001367870098C79847218B75FFB71701407C
:10170000938707409C47938501811945813CB70722
:101710000020938587000545913437040020930508
:1017200004000145253C138501818D3CB70700204D
:1017300013858700A534130504008D3413870181B8
:101740008305670009651305C58CAD35B707002013
:10175000938787008385670009651305858D993D0B
:10176000130404008305640009651305458E99354B
:10177000B7F700E09847B7A72400938707F03E9794
:10178000B7F600E09C46998FE3CE07FE85BF0000C8
:10179000B00600009202000008060000920200005D
:1017A000A20600009202000008060000B006000039
:1017B000B0060000A2060000080600007802000043
:1017C0007802000078020000A20600000001020278
:1017D00003030303040404040404040405050505C9
:1017E00005050505050505050505050506060606A5
:1017F0000606060606060606060606060606060689
:101800000606060606060606060606060707070774
:101810000707070707070707070707070707070758
:101820000707070707070707070707070707070748
:101830000707070707070707070707070707070738
:101840000707070707070707070707070808080824
:101850000808080808080808080808080808080808
:1018600008080808080808080808080808080808F8
:1018700008080808080808080808080808080808E8
:1018800008080808080808080808080808080808D8
:1018900008080808080808080808080808080808C8
:1018A00008080808080808080808080808080808B8
:1018B00008080808080808080808080808080808A8
:1018C000080808080808080808080808726F743A29
:1018D0002025640A00000000686F723A2025640A1F
:1018E000000000007665723A2025640A0A000000B4
:1018F00000080140000000000010014000140140F9
:10190000C800200300000000C80020030000000001
:101910003200B603000000000000000000E06F404D
:041920000000004380
:00000001FF
