:100000006F00D04900000000120D0000100D00002C
:1000100000000000000000000000000000000000E0
:1000200000000000000000000000000000000000D0
:10003000100D000000000000100D00000000000086
:10004000100D0000100D0000100D0000100D00003C
:100050008C100000100D0000100D0000100D0000AD
:10006000100D0000100D0000100D0000100D00001C
:10007000100D0000100D0000100D0000100D00000C
:10008000100D0000100D0000100D0000100D0000FC
:10009000100D0000100D0000100D00000000000009
:1000A000130181FD9356750126CE9317950006D254
:1000B00022D093F6F60FA5839354F501ADC2130732
:1000C000F00F638FE6068E0737070004D98F9386FB
:1000D00016F8014313D67501139495001376F60FA5
:1000E0002580FD813DC61307F00F6309E6080E0465
:1000F00037070004598C130616F80145918E131624
:100100002300498E7D16B94233C7B40063E0C20AAA
:1001100085620A069382C24C1696104202869DC7DB
:100120003E852EC23EC0EF00102382471307B5FF65
:100130009306A0F89245B397E700898E014359BF13
:100140009306F00F0D43D9F7094369B7814605437C
:1001500051B71DC822853EC636C41AC22EC0EF0054
:10016000901F1307B5FF1306A0F8098E82451243AE
:10017000A246B2473314E400014549B71306F00F15
:100180000D452DFC09459DBF0146054585BF2687C8
:100190003E841A8589476301F51A8D476308F5186F
:1001A00085476312F50E8147014519AA13165400BD
:1001B00063F48712FD1681433AC8135706013AC00B
:1001C000824541647D14337786003E8536CC1ECA55
:1001D00032C63AC23EC4EF00B010AA852A84124546
:1001E000EF00100EA2478245AA843E85EF00101250
:1001F000D2434205324693D50301C98D4247E246B8
:10020000A28763FC9500B2959307F4FF63E7C500EE
:1002100063F595009307E4FFB2953EC8B387954018
:1002200082453E853E8436CA3AC632CCEF00500B3A
:10023000AA852AC41245EF00B0088245AA84228507
:10024000EF00D00CA243131305013247C247D24638
:100250009E856371930262469385F3FF3305C30065
:10026000333465002A8319E4637695009385E3FFB0
:100270003303C50013940701330393404D8C33338C
:100280006000336464001385F607635DA004937710
:10029000740099C79377F40011466383C700110473
:1002A000B7070008E18F99C7B70700F8FD177D8CE5
:1002B000138506089307E00F63C0A708935734001F
:1002C00092500254A6075E05A5835D8D7E07F24419
:1002D000598D1301810282809393F7018583E9BDD3
:1002E0002E874DBD054619C5098EED45814701454F
:1002F000E3C8C5FC9386E6093356C4003314D40022
:1003000033348000B367860093F6770099C693F67E
:10031000F70011466383C6009107B7060004FD8EFF
:100320008D83E38306E88147054559BFB707400041
:100330001305F00F014769B781471305F00F49B75F
:1003400011119352750122CA26C81317950006CCC5
:1003500093F2F20FAE8425831354F501638B0212DE
:100360009307F00F6385F2140E07B70700045D8F43
:10037000938212F8014693D674019397940093F6F2
:10038000F60FA583FD80638E06129305F00F638E32
:10039000B614B70500048E07CD8F938616F88145F5
:1003A000969636C09382160093162600CD8E294568
:1003B00033439400634FD51609456342D514FD16A7
:1003C0000546637CD614C164935607019383F4FFFA
:1003D00036C23377770093D60701B3F7770036C478
:1003E0003A85BE85F12D2A84A2453A85D12D2A87EA
:1003F000BE851245F125AA87A2451245D1259356FF
:1004000004013E9736976373F7002695B37777001C
:10041000B3767400C207B69793966700B336D000E0
:10042000E983DD8E93570701AA979A07D58F37077F
:1004300000087D8F6309071013D71700858BD98FAC
:100440001385F2076353A01013F7770019C713F74A
:10045000F70091466303D7009107370700087D8FA7
:1004600019C7370700F87D17F98F1385020813079E
:10047000E00F6345A71213D73700E2405244260726
:100480005E052583598D7E03C24433656500710185
:1004900082800DC73A853AC07D2D02479307B5FF8C
:1004A0009302A0F83317F700B382A240E1B593029C
:1004B000F00F0D46E31107EC094675BD8142054674
:1004C0005DBD9DCB3E853AC616C432C23EC0612595
:1004D00082479306B5FF1246B397D7009306A0F85C
:1004E000A2423247898E814565BD9306F00F8D4546
:1004F000E39807EA89456DB58146854555B50545BB
:10050000B316D50013F5065305ED13F6062449E29C
:1005100093F68608E38906EA268309476380E5089F
:100520000D476387E5060547E39CE5F00147014574
:10053000A9B73D45638EA6042D452283E38EA6FC14
:10054000BA87B285D9BF8242E5BD854619C5898E75
:100550006D4601470145E342D6F29382E209B3D6E4
:10056000D700B3975700B337F00033E7F60093771F
:10057000770099C79377F70091466383D7001107F7
:10058000B7070004F98F0D83DDD301470545F5B5A5
:10059000370740001305F00F0143C5B501471305A8
:1005A000F00FE1BDB70780004111FD1733F6A7003A
:1005B00022C41357F5011354750113D57501ED8F3E
:1005C00006C626C21375F50F1303F00F1374F40F4C
:1005D0000E06FD818E0763176506930614F091CB16
:1005E000AE826313B71E6383061451E41304F00F45
:1005F00011A293C21500631F571C638906127DD494
:100600001304F00FB7060004FD8E6389062C050461
:100610009306F00F81446308D40093D43700B707E2
:10062000801FFD17FD8C5E04B707807FA604A580A0
:100630007D8C458C1315F701B240418D22449244C4
:100640004101828093C21500B306A440631F571076
:100650006359D00805E5638F07269385F6FF89E97E
:10066000B297B7060004FD8E0944BDE2054415A00B
:10067000639C6600B2871304F00F21A8630E642404
:10068000B7050004CD8FB685ED4663DEB60093074F
:10069000160093F67700BDD693F6F7001146E38374
:1006A000C6F6910785B7930600028D8E33D5B70045
:1006B000B397D700B337F000C98FB297B7060004DD
:1006C000FD8EE1DA05049306F00F8144E30DD4F4C6
:1006D000B706007E13F61700FD168583F58FD18FC0
:1006E0004DBFA9C6B305854009C4B7060004558EA1
:1006F00011A82E8459DE9305F4FFBDD19306F00FA7
:10070000E309D4F8ED4663D5B60085072A8451B7CE
:10071000930600028D8EB316D6003353B600B3365F
:10072000D000B366D300B6972A8449BF930614005D
:1007300093F5E60F95E111EC29DE638F0718B29768
:10074000B7060004FD8EB1D6B70600FCFD16F58F86
:1007500031BF15D285D305A29305F00F638BB61870
:100760003E969357160036842DB7635BD00631E56D
:10077000638207169385F6FF89E5B307F6400544C3
:1007800025A0E38966EE6D458546634DB500930669
:1007900000028D8E33D5B700B397D700B337F00082
:1007A000B366F500B307D640B7040004B3F697006C
:1007B000E38106EEFD14FD8CF1A8630F6410B7050C
:1007C0000004CD8FB685C1B7B5CA05C81304F00FB4
:1007D0002E87C1B5A5C615C41304F00F16871DB525
:1007E000B1CEB305854031E416872E84E30306EAD3
:1007F0009305F4FF89E9918F59B72E871304F00F01
:10080000F5B71687E5BF9306F00FE304D4E86D4310
:100810008546634DB300930600028D8EB316D60055
:100820003353B600B336D000B366D300958F2A8415
:10083000A5BF37070004598E1687D1BF9306140051
:1008400093F6E60F9DEE1DE001E6C5CB168791B548
:10085000C1C7B304F640B7060004E58E99C2918F74
:10086000F5B7A687E39704E2014775BBE31406EEEC
:100870001687E39207E001471304F00FB704400026
:100880005DB3B304F640B7060004E58E9DCAB38499
:10089000C740168726853AC07D2C6D150247B39454
:1008A000A40063438502018D050593060002898E2D
:1008B000B3D7A400B394D400B3349000C58F0144DF
:1008C000C9BBE9F801444DB7B70700FCFD17098C17
:1008D000E58FC1B3B28741BDB28765BB93D4370002
:1008E0009307F00FE311F4D4E38F04D2B704400070
:1008F000A5BF1304F00F81443DB38144B5B737065B
:100900008000135775019307F6FF1377F70F9305D0
:10091000E007E98F9356F50163D0E5049305D0090C
:1009200063D8E500370500801345F5FF36958280D2
:1009300033E5C7009307500963DAE7001307A7F60A
:100940003315E50099CA3305A040828093076009FA
:10095000998F3355F500FDB701458280511106C4CA
:1009600022C226C04DC59357F54133C4A7001D8C44
:100970009354F5012285C522AA871305E0091D8D30
:10098000130760096343A70221476385E708E1175E
:100990003314F400260425805E05A240418D1244E4
:1009A000FE04458D8244310182801307900963580B
:1009B000A70495461387B7013317E4009D8EB356FD
:1009C000D4003337E00033E4E600370700FC7D173E
:1009D00093767400618F91C63D8891466303D4007D
:1009E0001107B7060004F98E81CAB70600FCFD1690
:1009F0001305F009758F1D8D1354370061BF95469F
:100A00001387B7FFE383D7FC3314E4007DBF814431
:100A1000014449B713056009B5BF511122C206C48C
:100A20002A84814719CD052A9307E009898F130786
:100A300060096341F70221476300E508611533143B
:100A4000A4002604258013957701A240418D12440D
:100A500031018280130790096358F7049306B501AA
:100A60001547B316D400098FB336D0003357E400CE
:100A700033E4E600370700FC7D1793767400618F3E
:100A800091C63D8891466303D4001107B706000460
:100A9000F98E81CAB70700FCFD177D8F9307F00917
:100AA000898F1354370071BF95461307B5FFE303D1
:100AB000D5FC3314E4007DBF9307600959B70000EB
:100AC0002A86014593F6150091C232958581060666
:100AD000F5F9828000000000634E050263C305043F
:100AE0002E86AA857D5515C285466378B600635665
:100AF000C00006068606E36CB6FE014563E4C50049
:100B0000918D558D85820582F5FA82808682C93F56
:100B10002E8582823305A0406347B000B305B04004
:100B2000C1B7B305B0408682653F3305A0408282DD
:100B3000868263C70500634905005D372E85828282
:100B4000B305B040E35B05FE3305A040513F3305DC
:100B5000B04082820000C1676375F50293370510CB
:100B600093C717008E070567930600029D8E3355C5
:100B7000F50093078750AA9703C507003385A64061
:100B8000828037070001C147E36FE5FCE147E1BF21
:100B9000B727014093870740C8DB9847B706400056
:100BA000558F98C79843098B75DFFC4703D72500FD
:100BB000C207C1832392F5006375F7002391F50006
:100BC000828003D7050063F4E7002390F50082805C
:100BD000411122C426C22A848354050003552500EE
:100BE00006C6AD3B2AC026850D3DAA8502455D3A65
:100BF000AA8503A58181EFF0AFCA2AC0035544003E
:100C0000058DA93BAA850245EFF08FF383A5C1812D
:100C1000513AF531620561851307F5001377F70F37
:100C2000F94663E3E60001452303A400B2402244F1
:100C3000924441018280B7160240904E9147B3978B
:100C4000A700D18F93E717009CCE1377F50F856728
:100C50000A079387C76CBA97984321811375F50FDC
:100C6000104393162500BD47B397D70093C7F7FFEE
:100C7000F18F1CC3104393F7F500B397D700D18FC2
:100C80001CC393F6F5FEA1476399F6008547918151
:100C9000B397A70091E1C2071CCB82809701002087
:100CA000938141B6138101001305000873100530CC
:100CB0008D4617F5FFFF1305E534558D731055303C
:100CC000138501829385018801466356B50010C1E2
:100CD0001105E34EB5FE17150000130565A097F545
:100CE000FF1F93852532138601826388C500144156
:100CF00094C111059105E39AC5FEB7F700E01547C9
:100D000098C38567938727D8739017347300203072
:100D100001A0371702401C47B7068000D58F1CC7BB
:100D2000B7270240054798C3B717024037070801A5
:100D300023A207001307170898C337079F0098C717
:100D4000371702401C4393966700E3DD06FE5C43C1
:100D5000B7160240F19B93E727005CC32147DC42B2
:100D6000B18BE39EE7FEB70700E09387870F23A0D0
:100D70000700B70700E09387470F1307000898C3E1
:100D80008280511106C422C226C0593FB7F700E045
:100D90009847B167938707B83E97B7F600E09C463F
:100DA000998FE3CE07FEB70700203714024023AE29
:100DB00007021C4CB706F0FF9386F60F93E7170265
:100DC0001CCCB717014093870740984391450945CC
:100DD000758FB786080093860630558F98C39306A3
:100DE000000C3707014014C7A1461307074014C37E
:100DF00054C7114798CBB7E700E03707100023A08E
:100E0000E710153DE145130530503535E145130533
:100E100020401535E14513052030313DE1451305EE
:100E20002020113DE1451305201031358145130582
:100E300000101135814513050020F53B8145130550
:100E40003060D53B1C4C41771307F77F93E70720B1
:100E50001CCC5C40B7060E008506F98F5CC05C4078
:100E60003777DB36130767DB5CC05C4493E707200A
:100E70005CC45C4493F7F7DF5CC4B72701409387F9
:100E8000074023A6070223A8070223AA0702D8C700
:100E900098CB9847558F98C798471367870098C78E
:100EA0009847218B75FFB7170140B714014093870E
:100EB00007408C4790449C449444118298448D830D
:100EC00093C7170013461600858B058A9581898282
:100ED00006068A0793C5150093C616000583D18FB1
:100EE0008589858A134717008E06CD8F058BD58F90
:100EF0001207D98F9385018119452380F1824939E1
:100F0000B706002093858600054559313704002037
:100F1000930504000145AD399C44B7060020858B3C
:100F20008DEB9385860003D5050083D72500AA970E
:100F300003D54500898F2392F5009305040003D55E
:100F4000050083D72500AA9703D54500898F2392F2
:100F5000F50013850181AD39B706002013858600A1
:100F6000853913050400AD31B7F700E09847B7A7FE
:100F70000E00938707603E97B7F600E09C46998F76
:100F8000E3CE07FE0DB793175600B306F70010C364
:100F90008C529306B00499E19306300CBA979C5793
:100FA0009DEB0DCE83C7E18041110A852300F1003E
:100FB00083C7618001469145A300F10083C7618129
:100FC00006C62301F10083C70182A301F100612657
:100FD000B2404101828079F63685BDA65C4F4C5700
:100FE000085F8E079D8DE359B0FE21476353B7001C
:100FF000A14501463E9585A61C439607BA97D45352
:10100000639AC60693B61600D4D31447A5C683D6F2
:10101000450003D6250003D56500C206D18E03D650
:10102000050023AE070023AC070223A4070223A672
:101030000702232407000582930500346312B604D7
:1010400005671307C766930507062A8310436310D5
:10105000D602504390DF034687009312060193D2D5
:101060000201637355001A8642064182D0D73107C8
:10107000E31EB7FC9306200D094681450145E1AC0E
:1010800093070028E318F6FE54C3EDB75D712AC03C
:101090003ECAB717014093870740884761892EC22F
:1010A00032C436C63AC826CE12D8373201401302AF
:1010B00082C58C47E1896309052288476189631BE2
:1010C000B502884761896317B50288476189631350
:1010D000B50288476189631FB50088476189631B32
:1010E000B500884761896317B50088476189631334
:1010F000B50009A022CC014616D01AD22320020046
:1011000088476189630105182D8DA98D09A009C93A
:1011100009A0804761882D8C11E009A0C5B70100A6
:101120001ED406DAA144194401000100C166FD166F
:10113000296705079303F1039302000801000100EA
:101140002320020088476189630F05122D8DA98D28
:101150000100133515000606498E7D15498C1D8842
:101160007D14FD14E1F4930400061375C60009C54F
:101170005147F946130000002380C30093831300F6
:1011800023200200884761892D8D0DC5A98D09A0F6
:101190001944BDC91395F6017D858582798DA98E87
:1011A0000582FD1413F5740061D9010001000100EE
:1011B000E1F8D1A87D1413F516007D15798D85828F
:1011C000A98E05821366060811C8FD1413F5740074
:1011D00045D5010001000100C5F475A0FD1413F50B
:1011E000740009E52380C3009383130023200200C9
:1011F0008847618911C92D8DA98D51C519440100F8
:101200000D457D157DFDADFC13F574002DED9305A9
:10121000F10388218505970000009380000793075C
:1012200055FB425217F7FF1F130707E0C9C785EAAE
:1012300092211375F6071D823D8A09446375860461
:1012400001C540236311A404938747FCC1CFC51790
:10125000639407006FF03FD38917B5CB2DA02D64A1
:101260000504818E8DE2B386B3408506938787F8A7
:101270000146639407006FF03FD8C5170546639495
:1012800007006FF07FD76244F24482521253A25398
:10129000D250F24442522246B2464247924509A0F9
:1012A000B707014093874741214588C30245D2478C
:1012B000616173002030104316063A967106484269
:1012C00085452D8D48C20842050508C26DBF10C373
:1012D00085450CC716063A960CD281454CCE0CDEDD
:1012E0004CD255B710A345B737F500E0210517F7E5
:1012F000FF1F130767D30C4B104110CB0D8E50CB43
:10130000B165938505B80D8E8567938707FAE3521B
:10131000F6F8FD7793870706E34DF6F60C4FB29586
:101320000CCFA5D9371702400843135635007D8AE4
:10133000930770F07D8DB305B04013D695404106FC
:101340000E06518D08C3B1B7AA8617050000130514
:10135000A51389452E86411122C026C2B717014028
:10136000938707409843B714F0FFFD14658FB724A7
:101370000200458FB7040800C10484CB98C337032B
:101380001800610312C49E0613E40604814209E6B4
:10139000A962850241667D168E05AE833732014013
:1013A000130282C51947BD4511A00100A286058020
:1013B000858A7D1781E6B3C46400194784CBFD1587
:1013C00091C58D46FD16FDFE0100CDB79E85ADC5CC
:1013D000FD156394020041667D160100002105059C
:1013E000A286858A81CE058093761600FD16B3F617
:1013F00056000582358E7D1725CF29A805809316C6
:10140000F601FD86B3C4640084CB19470582B3F6A8
:101410005600358E81C993F67500FD15E1D209A0FD
:10142000C1B70100638A020093D282009D45E3891F
:1014300002FA1344F6FF6DB78D46FD16FDFEB704A4
:10144000180084CBA146FD16FDFEB7041000A104D0
:1014500084CB8443B7D6FCFFFD16F58CB746040059
:10146000D58C84C30244924422424101828001000F
:101470009146FD16FDFEB3C464001947010001004A
:1014800084CB49BF0000000008033000300030006A
:1014900000000000200333002D00410078006900A7
:1014A000730020004A006F00790073007400690027
:1014B00063006B00000000000E0341004400420086
:1014C0006500740061000000040309043803000093
:1014D000A6010000E0020000A60100002C030000AD
:1014E000A6010000E00200003803000038030000FD
:1014F0002C030000E00200008E0100008E010000BD
:101500008E0100002C03000000010202030303030C
:101510000404040404040404050505050505050583
:101520000505050505050505060606060606060663
:10153000060606060606060606060606060606064B
:101540000606060606060606070707070707070733
:10155000070707070707070707070707070707071B
:10156000070707070707070707070707070707070B
:1015700007070707070707070707070707070707FB
:1015800007070707070707070808080808080808E3
:1015900008080808080808080808080808080808CB
:1015A00008080808080808080808080808080808BB
:1015B00008080808080808080808080808080808AB
:1015C000080808080808080808080808080808089B
:1015D000080808080808080808080808080808088B
:1015E000080808080808080808080808080808087B
:1015F000080808080808080808080808080808086B
:10160000080808080808080805010905A1000501DF
:101610001581257F09300931093595037508810247
:101620000509190129081500250195087501810290
:10163000C0000000090222000101008064090400CA
:101640000001030000000921100100012229000708
:1016500005810304000100001201100103000008CD
:10166000091203C002000102030100000001000092
:10167000581600001200000000020000341600009E
:1016800022000000002200000816000029000000CF
:1016900000210000461600000900000000030000C1
:1016A000C81400000400000001030904B81400007D
:1016B0000E00000002030904941400002000000042
:1016C000030309048814000008000000000801401A
:0C16D00000000000001001400014014068
:1016DC00BE002A0300000000BE002A030000000028
:1016EC003200B6030000000000007F4300000043FE
:00000001FF
